:040000008A11FD2F35
:100B9C008312031306168616061786178610061080
:100BAC0006118611080072087304031DDE2DDF2D5B
:100BBC00E42D8312031306108610F32D70037104B9
:100BCC00031DE92DEA2DEF2D831203130610861455
:100BDC00F32D8312031306148610080083160313D7
:100BEC008E150730831203139F0085013F30831647
:100BFC0003138500831203138601831603138601E6
:100C0C008A11CE258A118A115A268A110130F000D8
:100C1C000030F1000130F2000030F3008A11D925C8
:100C2C008A110B30F6002630F5005D30F400F40B21
:100C3C001D2EF50B1D2EF60B1D2E242E0030F00054
:100C4C00F1000130F2000030F3008A11D9258A112D
:100C5C000B30F6002630F5005D30F400F40B342E2A
:100C6C00F50B342EF60B342E3B2E0030F000F10039
:100C7C000030F200F3008A11D9258A118312031374
:100C8C0086130230F6000430F500BA30F400F40B91
:100C9C004D2EF50B4D2EF60B4D2E0000831203132B
:100CAC0086170C2E8A110028831203138612033028
:100CBC00F2008A30F1005530F000F00B632EF10B8E
:100CCC00632EF20B632E6A2E831203138616061202
:100CDC000330F2008A30F1005530F000F00B742E26
:100CEC00F10B742EF20B742E7B2E8312031306164B
:100CFC0006130330F2008A30F1005530F000F00B8F
:100D0C00852EF10B852EF20B852E8C2E8312031360
:100D1C00061786130330F2008A30F1005530F000CC
:100D2C00F00B962EF10B962EF20B962E9D2E831217
:100D3C0003138617A001A10183120313051361305D
:100D4C00F000F00BA72EAA2E8312031305176130A7
:100D5C00F000F00BAF2EB22E043083120313A00759
:100D6C000318A10A0030A1072108803AFF009D302A
:100D7C007F02031DC32E4C302002031CC62EC72E2F
:100D8C00A22E4130F100EE30F000F00BCB2EF10B27
:100D9C00CB2E000083120313A201A30183120313B1
:100DAC0005137A30F000F00BD92EDC2E83120313CE
:100DBC0005177A30F000F00BE12EE42E063083128A
:100DCC000313A2070318A30A0030A3072308803AD1
:100DDC00FF009B307F02031DF52E58302202031CAE
:100DEC00F82EF92ED42E8230F100DD30F000F00B0D
:100DFC00FD2EF10BFD2E022F83120313A401A5016E
:100E0C008312031305138230F000F00B0B2F00003C
:100E1C008312031305178230F000F00B132F000020
:100E2C00063083120313A4070318A50A0030A50784
:100E3C002508803AFF009B307F02031D272F583076
:100E4C002402031C2A2F2B2F062F8230F100DD30B9
:100E5C00F000F00B2F2FF10B2F2F342F83120313D5
:100E6C00A601A7018312031305139230F000F00BB7
:100E7C003D2F00008312031305179230F000F00B86
:100E8C00452F0000083083120313A6070318A70A86
:100E9C000030A7072708803AFF009B307F02031D14
:100EAC00592F58302602031C5C2F5D2F382F8230AF
:100EBC00F100DD30F000F00B612FF10B612F662F8C
:100ECC0083120313A801A9018312031305138230A3
:100EDC00F000F00B6F2F0000831203130517823004
:100EEC00F000F00B772F0000063083120313A807D5
:100EFC000318A90A0030A9072908803AFF009B3083
:100F0C007F02031D8B2F58302802031C8E2F8F2F2E
:100F1C006A2F8230F100DD30F000F00B932FF10BD3
:100F2C00932F982F83120313AA01AB01831203137F
:100F3C0005137A30F000F00BA12FA42F83120313AA
:100F4C0005177A30F000F00BA92FAC2F0630831266
:100F5C000313AA070318AB0A0030AB072B08803A1F
:100F6C00FF009B307F02031DBD2F58302A02031C4B
:100F7C00C02FC12F9C2F8230F100DD30F000F00B20
:100F8C00C52FF10BC52FCA2F83120313AC01AD0172
:100F9C008312031305136130F000F00BD32FD62FFF
:100FAC008312031305176130F000F00BDB2FDE2FDB
:100FBC00043083120313AC070318AD0A0030AD07DD
:100FCC002D08803AFF009B307F02031DEF2F583015
:100FDC002C02031CF22FF32FCE2F8230F100DD30C8
:100FEC00F000F00BF72FF10BF72FFC2F080083010B
:040FFC008A11F42D35
:02400E00181E7A
:00000001FF
