:040000008A11FD2F35
:100B500083120313061686160617861786110611CA
:100B60008610061008008312031386120330F20069
:100B70008A30F1005530F000F00BBC2DF10BBC2D8C
:100B8000F20BBC2DC32D83120313861606120330FD
:100B9000F2008A30F1005530F000F00BCD2DF10B52
:100BA000CD2DF20BCD2DD42D831203130616061373
:100BB0000330F2008A30F1005530F000F00BDE2DEA
:100BC000F10BDE2DF20BDE2DE52D8312031306173C
:100BD00086130330F2008A30F1005530F000F00B3C
:100BE000EF2DF10BEF2DF20BEF2DF62D83120313EA
:100BF0008617F301F401831203130513AE30F000DE
:100C0000F00B002E831203130517AE30F000F00B2B
:100C1000072E0A30F3070318F40A0030F4077408AB
:100C2000803AFF0085307F02031D182EDC307302EE
:100C3000031C1B2E1C2EFB2D4130F100EE30F0006A
:100C4000F00B202EF10B202E0000F501F60183128F
:100C500003130513DB30F000F00B2C2E0000831281
:100C600003130517DB30F000F00B342E00000C30BE
:100C7000F5070318F60A0030F6077608803AFF00F9
:100C800083307F02031D462EE8307502031C492E77
:100C90004A2E272E8230F100DD30F000F00B4E2E70
:100CA000F10B4E2E532E0800831603138E150730BA
:100CB000831203139F0085013F30831603138500C1
:100CC0008312031386018316031386018A11A82554
:100CD0008A118A11B3258A11831203138613051909
:100CE000722E732E6C2E8617A001A101831203139E
:100CF0000513AE30FB00FB0B7B2E8312031305178D
:100D0000AE30FB00FB0B822E0A3083120313A007C8
:100D10000318A10A0030A1072108803AFF0085309E
:100D20007F02031D952EDC302002031C982E992E85
:100D3000762E4130FC00EE30FB00FB0B9D2EFC0BB1
:100D40009D2E00008312031306120519A82EA92E4A
:100D5000E02E8519AC2EAD2EE02E06160613A2014C
:100D6000A3018312031305138230FB00FB0BB62E85
:100D700000008312031305178230FB00FB0BBE2E0D
:100D80000000063083120313A2070318A30A0030E1
:100D9000A3072308803AFF00CA307F02031DD22E2A
:100DA00038302202031CD52ED62EB12E8230FC0004
:100DB000DD30FB00FB0BDA2EFC0BDA2EDF2EF42FDE
:100DC0008519E32EE42EE52E662E8518E82EE92EF1
:100DD000402F0518EC2EED2E402F86128613A4010D
:100DE000A50183120313861406158611A601A70117
:100DF0008312031305139230FB00FB0BFD2E000042
:100E00008312031305179230FB00FB0B052F000024
:100E1000083083120313A6070318A70A0030A70798
:100E20002708803AFF0080307F02031D192F5030C1
:100E30002602031C1C2F1D2FF82E831203130611EC
:100E400086100330FC009730FB00FB0B252FFC0BBA
:100E5000252F2A2F013083120313A4070318A50A94
:100E60000030A5072508803AFF0080307F02031D6F
:100E70003B2F0A302402031C3E2F3F2FF12EED2F73
:100E8000851C432F442F962F0518472F482F962F48
:100E90008613A801A9018312031306158611AA015E
:100EA000AB01831203130513AE30FB00FB0B562F6F
:100EB000831203130517AE30FB00FB0B5D2F0A30C6
:100EC00083120313AA070318AB0A0030AB072B08E1
:100ED000803AFF0080307F02031D702F50302A02BD
:100EE000031C732F742F512F831203130611033029
:100EF000FC009730FB00FB0B7B2FFC0B7B2F802F24
:100F0000013083120313A8070318A90A0030A907A8
:100F10002908803AFF0080307F02031D912F0A309C
:100F20002802031C942F952F4B2FED2F8518992FF6
:100F30009A2FED2F051C9D2F9E2FED2F8612AC01B1
:100F4000AD018312031306108614AE01AF018312A4
:100F500003130513DB30FB00FB0BAC2F00008312E7
:100F600003130517DB30FB00FB0BB42F00000C3024
:100F700083120313AE070318AF0A0030AF072F0820
:100F8000803AFF0080307F02031DC82F50302E02B0
:100F9000031CCB2FCC2FA72F8312031386100330F3
:100FA000FC009730FB00FB0BD32FFC0BD32FD82F6B
:100FB000013083120313AC070318AD0A0030AD07EC
:100FC0002D08803AFF0080307F02031DE92F0A3090
:100FD0002C02031CEC2FED2FA12F831203130616F6
:100FE000861686170617A22E831203138519F92F6A
:100FF000FA2FF42F662E8A11002883018A11542EAD
:02400E00181E7A
:00000001FF
